:1006AF004443204D6F746F7220436F6E74726F6C82
:1006BF000044757479202025642563202000467737
:1006CF0064005265760052756E2E2E2E0053746F95
:0906DF007020212020200080C0C1
:030882000123004F
:06082400D2827F327E004B
:10082A00E4FDFCD3ED9FEC9E50070DBD00010C804A
:01083A00F2CB
:01083B00229A
:1007BB007580F0D281C280120824C200E58033928A
:1007CB0000C28212082AD28212082AC28212082A76
:0207DB00A2007A
:0107DD0022F9
:10071900AB07EB54F0FFE580540F4FF58012082426
:10072900C28212082AEBC454F0FFE580540F4FF53A
:0D07390080D2827F3212082AC28202082A72
:10084E00AB071207BB40FBC281D280AF0302071970
:10085E00AB071207BB40FBC281C280AF0302071970
:1007DE008B088A09890AAB08AA09A90A120460FFC4
:1007EE00601012084E7401250AF50AE43509F50960
:0307FE0080E42272
:05087D007F0102085E8E
:03079500E4FDFF81
:040798008F088D0930
:10079C00780A7C007D007BFF7A0679E67E007F027A
:0F07AC0012043A740A2508F8E62509FF02085ED0
:10074600C280C281C2827F0112085E1208267F0221
:1007560012085E7F0112085E1208267F0C12085EE0
:080766001208267F2802085E3C
:10083C00E4FDFCD3ED9FEC9E50070DBD00010C8038
:01084C00F2B9
:01084D002288
:0F086E0075890275A882758A9B758C9BC28C2236
:10080100D28CEFFB7A0064417006C2A78C248D253F
:10081100EB64424A700CD2A7C374149DF525E49C85
:03082100F5242299
:07000300C28CC2A6C2A722B5
:100500007F0A7E0012083C12086E12074612087D10
:100510001207957BFF7A0679AF1207DE120003758A
:100520003A00753B057537412090FD3090FD12086B
:100530007D20900F3090FDE53C70047F0180027FAC
:10054000008F3CE53C700302060BAD3BAC3AAF3785
:100550001208012091163091FDC3E53B9414E53A51
:1005600094005008053BE53B7002053A2092163096
:1005700092FDD3E53B9400E53A94004008E53B1535
:100580003B7002153A20930F3093FDE52370047FF2
:100590000180027F008F23E52360057537418003CA
:1005A0007537427D067F01120798750BFF750C06A3
:1005B000750DC0AE3AAF3B7C007D051204798E0EFE
:1005C0008F0F7510257B007A00792712006A7B0057
:1005D0007A0079271207DE7D0DE4FF120798E537D0
:1005E000644170097BFF7A0679CD1207DEE5376436
:1005F0004270097BFF7A0679D11207DE1207957BDC
:10060000FF7A0679D51207DE0205311200031208BF
:100610007DE4FDFF1207987BFF7A0679DC1207DE86
:030620000205319F
:03000B000206E802
:1006E800C0E0C0D00539E53970020538C39414E577
:1006F8003894004006753800753900C3E5399525EA
:10070800E53895245004D2A68002C2A6D0D0D0E005
:0107180032AE
:03000000020623D2
:0C062300787FE4F6D8FD75813C02066A81
:10036A00E709F608DFFA8046E709F208DFFA803E75
:10037A0088828C83E709F0A3DFFA8032E309F60862
:10038A00DFFA8078E309F208DFFA807088828C83CA
:10039A00E309F0A3DFFA806489828A83E0A3F6087E
:1003AA00DFFA805889828A83E0A3F208DFFA804C58
:1003BA0080D280FA80C680D4806980F2803380102F
:1003CA0080A680EA809A80A880DA80E280CA803398
:1003DA0089828A83ECFAE493A3C8C582C8CCC58310
:1003EA00CCF0A3C8C582C8CCC583CCDFE9DEE780E0
:1003FA000D89828A83E493A3F608DFF9ECFAA9F05F
:10040A00EDFB2289828A83ECFAE0A3C8C582C8CCB4
:10041A00C583CCF0A3C8C582C8CCC583CCDFEADECD
:10042A00E880DB89828A83E493A3F208DFF980CC2F
:10043A0088F0EF60010E4E60C388F0ED2402B40428
:10044A000050B9F582EB2402B4040050AF232345CF
:06045A0082239003BA7337
:10046000BB010689828A83E0225002E722BBFE029A
:09047000E32289828A83E49322CD
:10047900EF8DF0A4A8F0CF8CF0A428CE8DF0A42E97
:02048900FE2251
:10000E00E517240BF8E60517227808300702780B5F
:10001E00E475F0011204CA0204602000EB7F2ED2B8
:10002E00008018EF540F2490D43440D4FF30040BCA
:10003E00EF24BFB41A0050032461FFE518600215C7
:10004E0018051BE51B7002051A30070D7808E475BC
:10005E00F0011204CAEF0204B802076E7403D2074D
:10006E008003E4C207F5178B088A09890AE4F5189C
:10007E00F51AF51BE51860077F2012004980F5750B
:10008E0019FFC201C200C202C203C205C206C208E3
:10009E00120017FF700D3007057F0012005AAF1BBC
:1000AE00AE1A22B4255FC2D5C204120017FF24D0A7
:1000BE00B40A00501A75F00A781830D50508B6FF44
:1000CE000106C6A426F620D5047002D20380D924D8
:1000DE00CFB41A00EF5004C2E5D20402025AD20184
:1000EE0080C6D20080C0D20280BCD2D580BAD205E2
:1000FE0080B47F201200492002077401B518004019
:10010E00F112000EFF120049020082D208D20680C0
:10011E009512000EFB12000EFA12000EF94A4B70E9
:10012E0006792B7A037BFF20022EE518602A7E00CB
:10013E008E8275830012048B60060EEE651970F0C8
:10014E00C2D5EBC0E0EAC0E0E9C0E0EE1202A1D0F9
:10015E00E0F9D0E0FAD0E0FB120460FF60AAEBC039
:10016E00E0EAC0E0E9C0E0120049D0E02401F9D095
:10017E00E03400FAD0E0FBE5190460DCD519D98033
:10018E00877BFF7A02799DD202809C79108002795A
:10019E0008C206C2088008D2D5790A8004790AC23C
:1001AE00D5E519047002F519E4FAFDFEFF12000EF2
:1001BE00FC7B0820011312000EFD7B1030000A128A
:1001CE00000EFE12000EFF7B20EC3382D592D5502E
:1001DE0013C3E43000069FFFE49EFEE42001039D5E
:1001EE00FDE49CFCE4CBF8C201EC700CCFCECDCC80
:1001FE00E824F8F870F38017C3EF33FFEE33FEED0B
:10020E0033FDEC33FCEB33FB994002FB0FD8E9EBEB
:10021E00300105F8D0E0C448B201C0E00AEC4D4E02
:10022E004F78207B0070C2EAB5190040BCC0E012C6
:10023E0002A3D0F0D0E0200104C4C0E0C4B201C0DB
:10024E00F0120032D0F0D5F0EB0200821204DA0187
:10025E001F5301995800F04C00EC42019D4F01A52F
:0F026E004401A54901054301AB55018F46018F9E
:10027D0045018F47034B5000F42D00F82E011B2B29
:10028D0000FC2301192003342A00B4480000011397
:10029D003F3F3F00790AA2D5200314300509B9105C
:1002AD00020404B9080104A2D5200602500104205D
:1002BD0002689202B518005034C0E07F2030031957
:1002CD007F30A20272067205500F1202FAC202C2EC
:1002DD0006C205C2087F30800F300503E9C0E01269
:1002ED000049300503D0E0F9D0E0B518CC30051742
:1002FD007F30B9100C1200497F583004077F788089
:10030D0003B908031200493002057F2D0200497F11
:10031D00202008F87F2B2006F322920280CF286E32
:10032D00756C6C2900D20112000E3001F8C20178F3
:10033D001830D50108F60200B42D5043495812006B
:10034D000E2403B405004001E49003469312003AD5
:0D035D00743A12003AD20375180402019997
:10062F00020500E493A3F8E493A34003F68001F2DC
:10063F0008DFF48029E493A3F85407240CC8C333CC
:10064F00C4540F4420C8834004F456800146F6DF9B
:10065F00E4800B0102040810204080900882E47EA1
:10066F00019360BCA3FF543F30E509541FFEE49390
:10067F00A360010ECF54C025E060A840B8E493A357
:10068F00FAE493A3F8E493A3C8C582C8CAC583CA82
:10069F00F0A3C8C582C8CAC583CADFE9DEE780BE3A
:010885000072
:10048B00BB010CE58229F582E5833AF583E0225026
:10049B0006E92582F8E622BBFE06E92582F8E22270
:0D04AB00E58229F582E5833AF583E493228A
:1004B800BB010689828A83F0225002F722BBFE0123
:0204C800F3221D
:1004CA00FAE6FB0808E6F925F0F618E6CA3AF62233
:1004DA00D083D082F8E4937012740193700DA3A3B1
:1004EA0093F8740193F5828883E4737402936860C5
:0604FA00EFA3A3A380DFC5
:10076E00EFB40A07740D120779740A309811A8991C
:10077E00B8130CC2983098FDA899C298B811F630EB
:07078E0099FDC299F59922C3
:00000001FF
